:100000000C9490000C94B8000C94B8000C94B800B8
:100010000C94B8000C94B8000C94B8000C94B80080
:100020000C94B8000C94B8000C94B8000C94B80070
:100030000C94B8000C94B8000C94B8000C94B80060
:100040000C9495070C94B8000C9463070C943D072E
:100050000C94B8000C94B8000C94B8000C94B80040
:100060000C94B8000C94B80008000000BE9224491B
:10007000123EABAAAA2ABECDCCCC4C3E00000080DA
:10008000BEABAAAAAA3E00000000BF000000803F4D
:100090000000000000084178D3BB4387D1133D190D
:1000A0000E3CC3BD4282AD2B3E68EC8276BED98F3A
:1000B000E1A93E4C80EFFFBE01C4FF7F3F0000007E
:1000C000000000000000240027002A0000000000BB
:1000D000250028002B00000000080002010000039A
:1000E00004070000000000000000000000002300E2
:1000F0002600290004040404040404040202020289
:1001000002020303030303030102040810204080DA
:10011000010204081020010204081020DF073B0C34
:1001200011241FBECFEFD8E0DEBFCDBF12E0A0E0AC
:10013000B1E0E4E6F3E202C005900D92AA30B10707
:10014000D9F723E0AAE0B2E001C01D92AB30B207BC
:10015000E1F710E0CFE8D0E004C02197FE010E9453
:10016000AD0FCE38D107C9F70E9460080C94A511D5
:100170000C940000CF92DF92EF92FF92CF93DF9327
:10018000B091C502A0E08111AB2F8091C60290E032
:10019000880F991FAC0146515F4FC090CB02D090A1
:1001A000CC02E090CD02F090CE0230E020E0FA01E7
:1001B000C591D491E881B90190E080E0EB23EA1386
:1001C0000AC02F5F3F4F6C157D058E059F0578F3A4
:1001D0006FEF7FEFCB01DF91CF91FF90EF90DF903A
:1001E000CF900895DC01ED91FC910190F081E02D1C
:1001F0000994AF92BF92CF92DF92EF92FF920F934A
:100200001F93CF93DF936C017B018B01040F151FAC
:10021000EB015E01AE18BF08C017D10759F0699114
:10022000D601ED91FC910190F081E02DC601099578
:10023000892B79F7C501DF91CF911F910F91FF9025
:10024000EF90DF90CF90BF90AF900895FC01538D59
:10025000448D252F30E0842F90E0821B930B5417A0
:1002600010F0CF96089501970895FC01918D828D2D
:10027000981761F0A28DAE0FBF2FB11D5D968C91C6
:10028000928D9F5F9F73928F90E008958FEF9FEF05
:100290000895FC01918D828D981731F0828DE80FC1
:1002A000F11D858D90E008958FEF9FEF0895FC017B
:1002B000918D228D892F90E0805C9F4F821B910948
:1002C0008F739927089581E292E00E94570121E0FF
:1002D000892B09F420E0822F089580E090E0892B9B
:1002E00029F00E94630181110C9400000895FC0123
:1002F000A48DA80FB92FB11DA35ABF4F2C91848D87
:1003000090E001968F739927848FA689B7892C93E3
:10031000A089B1898C91837080648C93938D848D36
:10032000981306C00288F389E02D80818F7D808339
:100330000895EF92FF920F931F93CF93DF93EC01F9
:1003400081E0888F9B8D8C8D98131AC0E889F9897C
:10035000808185FF15C09FB7F894EE89FF8960837F
:10036000E889F98980818370806480839FBF81E000
:1003700090E0DF91CF911F910F91FF90EF90089542
:10038000F62E0B8D10E00F5F1F4F0F731127E02E1D
:100390008C8D8E110CC00FB607FCFACFE889F98955
:1003A000808185FFF5CFCE010E947701F1CFEB8DE3
:1003B000EC0FFD2FF11DE35AFF4FF0829FB7F89429
:1003C0000B8FEA89FB8980818062CFCFCF93DF9347
:1003D000EC01888D8823B9F0AA89BB89E889F9895D
:1003E0008C9185FD03C0808186FD0DC00FB607FC92
:1003F000F7CF8C9185FFF2CF808185FFEDCFCE01C5
:100400000E947701E9CFDF91CF91089590E0FC0140
:10041000EA52FF4F2491FC01E85FFE4F3491FC014A
:10042000EC50FF4FE491EE23C9F0222339F0233042
:1004300001F1A8F4213019F1223029F1F0E0EE0F9A
:10044000FF1FE453FF4FA591B4918FB7F894EC913F
:10045000611126C030953E233C938FBF089527300D
:10046000A9F02830C9F0243049F7809180008F7DB1
:1004700003C0809180008F7780938000DFCF84B5A8
:100480008F7784BDDBCF84B58F7DFBCF8091B000AB
:100490008F778093B000D2CF8091B0008F7DF9CF5D
:1004A0003E2BDACFCF93DF9390E0FC01E85FFE4F65
:1004B00024918C509F4FFC0184918823C9F090E0D7
:1004C000880F991FFC01EE53FF4FA591B491FC01D9
:1004D000E453FF4FC591D49161110DC09FB7F894BB
:1004E0008C91209582238C938881282328839FBF19
:1004F000DF91CF910895623051F49FB7F8943C9109
:10050000822F809583238C93E8812E2BEFCF8FB79A
:10051000F894EC912E2B2C938FBFEACF8E3008F0FD
:100520008E502091000190E4299F90011124877042
:10053000822B80937C0080917A00806480937A0083
:1005400080917A0086FDFCCF8091780090917900AF
:1005500008953FB7F89480910B0290910C02A091FE
:100560000D02B0910E0226B5A89B05C02F3F19F0D1
:100570000196A11DB11D3FBFBA2FA92F982F882723
:10058000BC01CD01620F711D811D911D42E0660FFE
:10059000771F881F991F4A95D1F708958F929F92D0
:1005A000AF92BF92CF92DF92EF92FF924B015C012C
:1005B0000E94A9026B017C010E94A9026C197D09AD
:1005C0008E099F09683E734081059105A8F321E0DB
:1005D000821A9108A108B10888EEC80E83E0D81EDF
:1005E000E11CF11C81149104A104B10429F7FF90CE
:1005F000EF90DF90CF90BF90AF909F908F90089535
:10060000CF92DF92EF92FF920F931F93CF93DF93DE
:10061000CDB7DEB7C054D1400FB6F894DEBF0FBEE1
:10062000CDBF2FB7F89480911D0290911E02A0912A
:100630001F02B09120022FBF4091C7025091C80203
:100640006091C9027091CA028C019D01041B150BB7
:10065000260B370BB901A801403D574061057105D4
:1006600090F48091CF02C05CDE4F0FB6F894DEBFED
:100670000FBECDBFDF91CF911F910F91FF90EF90F3
:10068000DF90CF9008958093C7029093C802A09303
:10069000C902B093CA021092C2021092C102109213
:1006A000C0021092BF021092BE0262E08091C302AB
:1006B0000E94520261E070E080E090E00E94CE0271
:1006C00061E08091C3020E94520260E08091C30207
:1006D0000E9406028091C4028551823020F58BE28F
:1006E00091E10197F1F762E08091C3020E9452020A
:1006F0008091D00290E08230910538F0880F991FE8
:10070000880F991F05970197F1F7F89480E00E94F0
:10071000BA006F3F7F4F8F4F9F4F61F41092CF020F
:10072000789480E0A0CF64E170E080E090E00E94E7
:10073000CE02D9CF81E00E94BA006F3F7F4F8F4F2A
:100740009F4F61F38E010F5F1F4F6E018FEBC81A31
:100750008EEFD80A780180E00E94BA00F70160832A
:1007600071838283938381E00E94BA00F7016483DE
:10077000758386839783F8E0EF0EF11CEC14FD047B
:1007800051F7789430E020E0F801C080D180E28019
:10079000F3804481558166817781FFEFCF16DF06B4
:1007A000EF06FF0631F04F3F8FEF580768077807D5
:1007B00019F41092CF02B5CFF90183E0F595E795D2
:1007C0008A95E1F7E254FD4F8081880FC416D50663
:1007D000E606F70610F180832F5F3F4F085F1F4F3B
:1007E0002832310589F64091C2022091BE028091E3
:1007F000BF02280F3327331F8091C002280F311DFD
:100800008091C102820F932F911D992748171906D5
:1008100081F681E08093CF0226CF8160DCCF0895FE
:1008200090E080E00895CF93DF93EC0160E08E814B
:100830000E94060261E08E810E94060260E08E81C5
:100840000E9406028BE891E00197F1F7DF91CF91CA
:100850000895CF92DF92EF92FF920F931F93CF9361
:10086000DF936C017C0187E0E80EF11CD0E0C0E072
:10087000062F10E0B8010C2E02C0759567950A94FA
:10088000E2F76170F70181917F010E9406022196D3
:10089000C430D10579F7C601DF91CF911F910F9137
:1008A000FF90EF90DF90CF900C941304CF92DF92E3
:1008B000EF92FF920F931F93CF93DF93EC01F62EED
:1008C000642F8C810E9406028D818F3F19F060E0B9
:1008D0000E9406020F2D10E08F8584FF25C06E0157
:1008E00087E0C80ED11CF12CE12CB8010E2C02C0FF
:1008F000759567950A94E2F76170F60181916F0131
:100900000E940602FFEFEF1AFF0A88E0E816F104E2
:1009100061F7CE01DF91CF911F910F91FF90EF9082
:10092000DF90CF900C941304B80184E0759567951F
:100930008A95E1F7CE010E9429046F2DCE01DF9147
:10094000CF911F910F91FF90EF90DF90CF900C947B
:10095000290440E0682F81ED92E00C94560481E078
:100960000E94A9048BE39FE10197F1F70895CF93CB
:10097000DF93613029F09091E00298609093E0025B
:100980006093E4021092E50290E49093E602809373
:10099000E702805C8093E80261E08091D5020E94CA
:1009A00052028091D6028F3F19F061E00E945202FC
:1009B00061E08091D7020E945202C1EDD2E09E0117
:1009C000215D32408091E00284FD0BC084E090E024
:1009D00021962817390744F461E08E810E94520263
:1009E000EECF88E090E0F4CF8BE39DE00197F1F744
:1009F00060E08091D5020E94060260E08091D702FB
:100A00000E9406028091D6028F3F19F060E00E949A
:100A100006028091E00284FD34C063E081ED92E043
:100A20000E942904CBE4D6E4CE010197F1F763E0FC
:100A300081ED92E00E9429042197F1F763E081EDB6
:100A400092E00E94290483E592E00197F1F762E0C9
:100A500081ED92E00E9429048091E00280620E9470
:100A6000A90484E08093E1028CE00E94A9040E9422
:100A7000AF0482E08093E20286E0DF91CF910C9494
:100A8000A90480620E94A9048BE496E40197F1F71F
:100A90008091E00280620E94A90483E592E00197C0
:100AA000F1F78091E00280620E94A904D5CF909175
:100AB000E402691710F06FEF690FE62FF0E0EF52D4
:100AC000FD4F9489890F80680C94A90441E00E942D
:100AD000560481E090E008950F931F93CF93DF9326
:100AE0008B0128E0829FC001112480640E94A90428
:100AF000E801085F1F4F699181ED92E00E94660551
:100B0000C017D107C1F7DF91CF911F910F910895C1
:100B1000FB0101900020E9F73197AF01461B570B0D
:100B2000DC01ED91FC910280F381E02D09948F921C
:100B30009F92AF92BF92EF92FF920F931F93CF932A
:100B4000DF93CDB7DEB7A1970FB6F894DEBF0FBE27
:100B5000CDBF7C01FA01CB0119A2223008F42AE0B2
:100B60008E010F5D1F4F822E912CB12CA12CBF0145
:100B7000A50194010E94C90DF901CA016A300CF562
:100B8000605DD8016E938D01232B242B252B79F7E3
:100B900090E080E0109721F0BD01C7010E94880518
:100BA000A1960FB6F894DEBF0FBECDBFDF91CF91F7
:100BB0001F910F91FF90EF90BF90AF909F908F90FB
:100BC0000895695CDECFCF92DF92EF92FF920F9390
:100BD0001F93CF93DF936B01770FEE08FF08F7FEAB
:100BE0001BC0EC016DE20E94F2008C0144275527E6
:100BF000BA014C195D096E097F092AE0CE010E94F5
:100C00009705800F911FDF91CF911F910F91FF905A
:100C1000EF90DF90CF9008952AE0B701A601DF9111
:100C2000CF911F910F91FF90EF90DF90CF900C9498
:100C300097052F923F924F925F926F927F928F9281
:100C40009F92AF92BF92CF92DF92EF92FF921F934B
:100C5000CF93DF93EC016A017B01722EAB01960109
:100C6000CB01B6010E946C0F65E671E0811126C0D0
:100C700046015701E894B7F82FEF3FEF4FE75FE7E2
:100C8000C501B4010E946C0F81110CC02FEF3FEF22
:100C90004FE75FE7C501B4010E944F0C69E671E0C0
:100CA000181664F02FEF3FEF4FE75FE4C701B6017E
:100CB0000E940F0F1816B4F46DE671E0CE01DF91BB
:100CC000CF911F91FF90EF90DF90CF90BF90AF90AA
:100CD0009F908F907F906F905F904F903F902F905C
:100CE0000C9488052FEF3FEF4FE75FECC701B6018B
:100CF0000E944F0C87FDE0CF20E030E0A901C70142
:100D0000B6010E944F0C312C212C87FF09C06DE2E7
:100D1000CE010E94F2001C01F7FAF094F7F8F0946B
:100D200010E060E070E080E09FE3711641F020E0A9
:100D300030E040E251E40E94670E1F5FF6CFA7014A
:100D400096010E94FB0D2B013C010E94E00E4B011D
:100D50005C012AE0BC01A401CE010E9497057C0140
:100D6000E20CF31C1123C1F1C501B4010E94540C23
:100D70009B01AC01C301B2010E94FA0D4B015C0161
:100D80006EE2CE010E94F200E80EF91E115020F131
:100D900020E030E040E251E4C501B4010E94B50C0E
:100DA0002B013C010E94E00E4B01B12CA12C2AE04A
:100DB000B501A401CE010E949705E80EF91EC501F8
:100DC000B4010E94540C9B01AC01C301B2010E940A
:100DD000FA0D4B015C01DACFC701DF91CF911F9172
:100DE000FF90EF90DF90CF90BF90AF909F908F904B
:100DF0007F906F905F904F903F902F9008950C944C
:100E00008805CF93DF93EC01198218821B821A8226
:100E10001D821C8261E070E090E080E00E94D810AA
:100E20000097A1F0998388831B821A822C813D81CF
:100E3000232B11F4FC0110821D821C826AE971E0EF
:100E400088819981DF91CF910C949E11888199813D
:100E5000009711F00E944F10198218821D821C8287
:100E60001B821A82DF91CF910895FC0180819181CC
:100E7000009711F00C944F1008951F920F920FB627
:100E80000F9211242F933F934F935F936F937F9310
:100E90008F939F93AF93BF93EF93FF9381E292E081
:100EA0000E947701FF91EF91BF91AF919F918F9138
:100EB0007F916F915F914F913F912F910F900FBE56
:100EC0000F901F9018951F920F920FB60F9211243A
:100ED0002F938F939F93EF93FF93E0913102F091C3
:100EE00032028081E0913702F091380282FD1BC00E
:100EF000908180913A028F5F8F7320913B0282171D
:100F000041F0E0913A02F0E0EF5DFD4F958F809364
:100F10003A02FF91EF919F918F912F910F900FBE09
:100F20000F901F9018958081F4CF1F920F920FB6EB
:100F30000F9211242F933F938F939F93AF93BF935F
:100F400080911D0290911E02A0911F02B09120027B
:100F500030910A0223E0230F2D3758F50196A11D89
:100F6000B11D20930A0280931D0290931E02A0934C
:100F70001F02B093200280910B0290910C02A0916D
:100F80000D02B0910E020196A11DB11D80930B02BE
:100F900090930C02A0930D02B0930E02BF91AF91FB
:100FA0009F918F913F912F910F900FBE0F901F90A7
:100FB000189526E8230F0296A11DB11DD2CFCF931D
:100FC000E1E2F2E01382128288EE93E0A0E0B0E06A
:100FD00084839583A683B7838BE491E09183808398
:100FE00085EC90E09587848784EC90E097878687EE
:100FF00080EC90E0918B808B81EC90E0938B828BE6
:1010000082EC90E0958B848B86EC90E0978B868BBE
:10101000118E128E138E148E81E093E00E940107D0
:101020008BEF92E00E94010785EF92E00E9401079A
:101030008FEE92E00E94010789EE92E00E94010784
:10104000E1EDF2E0138212828DE591E091838083DD
:101050008CE084838FEF8583CBE0C68386E0878333
:1010600085E0808784E0818783E082871386148609
:1010700015861686178661E080E10E94B704AEEB04
:10108000B2E082E015968C9315971696CC9316973E
:10109000EAE0F1E0E4911796EC931797E6EFF0E0C1
:1010A000E4911896EC93189740E85EE360E070E0F6
:1010B0001D964D935D936D937C935097CF910895BA
:1010C000789484B5826084BD84B5816084BD85B523
:1010D000826085BD85B5816085BD80916E0081602F
:1010E00080936E00109281008091810082608093D5
:1010F00081008091810081608093810080918000D7
:101100008160809380008091B10084608093B10001
:101110008091B00081608093B00080917A008460FB
:1011200080937A0080917A00826080937A00809127
:101130007A00816080937A0080917A008068809341
:101140007A001092C100E0913102F091320282E007
:101150008083E0912D02F0912E021082E0912F0207
:10116000F09130028FEC808310923902E0913502C9
:10117000F091360286E08083E0913302F0913402F0
:10118000808180618083E0913302F091340280811C
:1011900088608083E0913302F0913402808180681E
:1011A0008083E0913302F091340280818F7D8083CF
:1011B00064E084E10E94B70462E08091C3020E946F
:1011C00052022FB7F89480911D0290911E02A091B7
:1011D0001F02B09120022FBF805D9740A109B10985
:1011E0008093C7029093C802A093C902B093CA0229
:1011F00087E38093D0026EE080E00E9452026FE0AD
:1012000080E00E94520260E180E00E94520261E1AF
:1012100080E00E94520261E089E00E94520261E097
:1012200088E00E945202109200010E94AF0461E324
:1012300071E081E00E946C0569E271E082E00E9449
:101240006C0561E271E083E00E946C0569E171E088
:1012500084E00E946C0561E171E085E00E946C050C
:1012600069E071E086E00E946C0561E071E087E072
:101270000E946C0561E080E00E94570561E081ED0D
:1012800092E00E94660561E081E00E94570562E0FD
:1012900081ED92E00E94660561E082E00E945705C0
:1012A00063E081ED92E00E94660561E083E00E94C8
:1012B000570564E081ED92E00E94660562E080E0FF
:1012C0000E94570565E081ED92E00E94660562E0AC
:1012D00081E00E94570566E081ED92E00E9466057C
:1012E00062E082E00E94570567E081ED92E00E9493
:1012F000660561E371E081E00E946C0569E271E0DE
:1013000082E00E946C0561E271E083E00E946C055E
:1013100069E171E084E00E946C0561E171E085E0C3
:101320000E946C0569E071E086E00E946C0561E056
:1013300071E087E00E946C0561E080E10E94570542
:1013400061E081ED92E00E94660561E081E10E942A
:10135000570562E081ED92E00E94660561E082E15E
:101360000E94570563E081ED92E00E94660561E00E
:1013700083E10E94570564E081ED92E00E946605DA
:1013800062E080E10E94570565E081ED92E00E94F5
:10139000660562E081E10E94570566E081ED92E01A
:1013A0000E94660562E082E10E94570567E081EDD8
:1013B00092E00E94660560E085E00E94570561E7C3
:1013C00071E081ED92E00E94FF0661E089E00E94F9
:1013D00057056CE771E081ED92E00E94FF0662E044
:1013E00085E00E9457056FE771E081ED92E00E9471
:1013F000FF0663E085E00E9457056AE871E081ED31
:1014000092E00E94FF0664E670E080E090E00E94B7
:10141000CE020E94AF0488248A9483E0982EA12CE7
:10142000B12C1AE0C0E0D0E069E371E081E00E94F5
:101430006C058EE00E948E0222E330E0DC010E9407
:10144000A60FA50194010E94730D30931C022093F6
:101450001B0265E971E081E292E00E94FF06609163
:101460001B0270911C0281E292E00E94E30561E0A0
:1014700070E081E292E00E94E3056BE971E081E2B5
:1014800092E00E94FF066DE081E292E00E94F2008D
:101490008FE00E948E02BC01990F880B990B0E946D
:1014A000560C20E030EC4FE754E40E94670E20E039
:1014B00030E040EA50E40E94B50C23E333E343E319
:1014C0005FE30E94FA0D2AE037ED43E25DE30E94FC
:1014D000670E0E94D90E70931A02609319026EE98A
:1014E00071E081E292E00E94FF0660911902709122
:1014F0001A0281E292E00E94E30561E070E081E27D
:1015000092E00E94E3056BE971E081E292E00E94C3
:10151000FF066DE081E292E00E94F20080E10E940D
:101520008E0218161906BCF5189FD001199FB00D30
:10153000112424E630E00E94A60F0E94560C0E945F
:10154000140F20E030E040E251E40E94B50C6B0142
:101550007C0120E030E048E452E40E944F0C87FF19
:1015600008C061E089E00E94060260E088E00E9415
:10157000060220E030E048E452E4C701B6010E94D0
:101580000F0F87FD08C060E089E00E94060261E05D
:1015900088E00E940602C0921502D0921602E092E4
:1015A0001702F092180264EA71E081E292E00E9470
:1015B000FF0640911502509116026091170270913A
:1015C000180222E081E292E00E94190669EA71E0C5
:1015D00081E292E00E94FF066DE081E292E00E94CB
:1015E000F20081E10E948E02BC01990F880B990BD9
:1015F0000E94560C2EEA37E442E153E40E94670E43
:1016000020E030E040E251E40E94670E6093110256
:101610007093120280931302909314026DEA71E0AA
:1016200081E292E00E94FF06409111025091120265
:10163000609113027091140222E081E292E00E9414
:10164000190662EB71E081E292E00E94FF066DE014
:1016500081E292E00E94F2000E940003882351F090
:101660008091C4028B3030F08D3048F0855182304B
:1016700008F4EFC060E070E080EC9FE71CC0609170
:10168000BF0270E090E080E00E94560C2DEC3CEC34
:101690004CEC5DE30E94B50C2B013C016091BE0255
:1016A00070E090E080E00E94560C9B01AC01C30109
:1016B000B2010E94FB0D0E94D90E7093100260933C
:1016C0000F0267EB71E081E292E00E94FF066091F9
:1016D0000F027091100281E292E00E94E3056CEB30
:1016E00071E081E292E00E94FF066DE081E292E00B
:1016F0000E94F20060E080E00E9457056FEB71E00D
:1017000081ED92E00E94FF0661E088E00E945705AB
:1017100060911B0270911C0281ED92E00E94E30532
:1017200061E081ED92E00E9466056CE971E081ED77
:1017300092E00E94FF0662E080E00E94570564ED9F
:1017400071E081ED92E00E94FF0663E088E00E9474
:1017500057056091190270911A0281ED92E00E9482
:10176000E30561E081ED92E00E9466056CE971E0BD
:1017700081ED92E00E94FF0668EC70E080E090E06E
:101780000E94CE020E94AF0460E080E00E945705F4
:101790006AEE71E081ED92E00E94FF064091150231
:1017A00050911602609117027091180222E081EDAB
:1017B00092E00E94190669EA71E081ED92E00E94D0
:1017C000FF0661E080E00E94570567EF71E081ED60
:1017D00092E00E94FF064091110250911202609126
:1017E00013027091140222E081ED92E00E9419062A
:1017F00062EB71E081ED92E00E94FF0662E080E022
:101800000E9457056FEF71E081ED92E00E94FF06A4
:1018100060910F027091100281ED92E00E94E30549
:101820006CEB71E081ED92E00E94FF0668EC70E0E5
:1018300080E090E00E94CE020E94AF04209709F45D
:10184000F3CD0E946301882309F4EECD0E940000CD
:10185000EBCD6091BE027091BF0276276727762795
:1018600090E080E00E94540C2DEC3CEC4CEC5DE3ED
:101870000E94B50C20CF89EE92E00E9435078FEED2
:1018800092E00E94350785EF92E00E9435078BEFCA
:1018900092E00E94350781E093E00C9435070E94A6
:1018A000910C08F481E00895E89409C097FB3EF498
:1018B00090958095709561957F4F8F4F9F4F99239D
:1018C000A9F0F92F96E9BB279395F695879577951B
:1018D0006795B795F111F8CFFAF4BB0F11F460FFDB
:1018E0001BC06F5F7F4F8F4F9F4F16C0882311F033
:1018F00096E911C0772321F09EE8872F762F05C047
:10190000662371F096E8862F70E060E02AF09A95E1
:10191000660F771F881FDAF7880F9695879597F9D6
:101920000895990F0008550FAA0BE0E8FEEF161670
:101930001706E807F907C0F012161306E407F507C3
:1019400098F0621B730B840B950B39F40A2661F037
:10195000232B242B252B21F408950A2609F4A140DA
:10196000A6958FEF811D811D08950E94C80C0C94CF
:10197000390D0E942B0D38F00E94320D20F0952376
:1019800011F00C94220D0C94280D11240C946D0D63
:101990000E944A0D70F3959FC1F3950F50E0551FBB
:1019A000629FF001729FBB27F00DB11D639FAA27B4
:1019B000F00DB11DAA1F649F6627B00DA11D661F03
:1019C000829F2227B00DA11D621F739FB00DA11D24
:1019D000621F839FA00D611D221F749F3327A00DDE
:1019E000611D231F849F600D211D822F762F6A2F7A
:1019F00011249F5750409AF0F1F088234AF0EE0FDF
:101A0000FF1FBB1F661F771F881F91505040A9F70B
:101A10009E3F510580F00C94220D0C946D0D5F3F9C
:101A2000E4F3983ED4F3869577956795B795F79547
:101A3000E7959F5FC1F7FE2B880F911D96958795BF
:101A400097F9089597F99F6780E870E060E008953E
:101A50009FEF80EC089500240A94161617061806C6
:101A60000906089500240A941216130614060506A2
:101A70000895092E0394000C11F4882352F0BB0F33
:101A800040F4BF2B11F460FF04C06F5F7F4F8F4F96
:101A90009F4F089557FD9058440F551F59F05F3FD1
:101AA00071F04795880F97FB991F61F09F3F79F080
:101AB00087950895121613061406551FF2CF469502
:101AC000F1DF08C0161617061806991FF1CF869584
:101AD0007105610508940895E894BB276627772768
:101AE000CB0197F90895052E97FB1EF400940E94F0
:101AF0008A0D57FD07D00E94C90D07FC03D04EF494
:101B00000C948A0D50954095309521953F4F4F4F3D
:101B10005F4F089590958095709561957F4F8F4F99
:101B20009F4F08952F923F924F925F926F927F92B4
:101B30008F929F92AF92BF92CF92DF92EF92FF92DD
:101B40000F931F93CF93DF93CDB7DEB7CA1BDB0B89
:101B50000FB6F894DEBF0FBECDBF09942A8839882E
:101B600048885F846E847D848C849B84AA84B98435
:101B7000C884DF80EE80FD800C811B81AA81B98141
:101B8000CE0FD11D0FB6F894DEBF0FBECDBFED0155
:101B90000895A1E21A2EAA1BBB1BFD010DC0AA1FAE
:101BA000BB1FEE1FFF1FA217B307E407F50720F0C6
:101BB000A21BB30BE40BF50B661F771F881F991F41
:101BC0001A9469F760957095809590959B01AC018A
:101BD000BD01CF010895A29FB001B39FC001A39F93
:101BE000700D811D1124911DB29F700D811D112456
:101BF000911D08955058BB27AA270E94120E0C94DD
:101C0000390D0E942B0D38F00E94320D20F039F46E
:101C10009F3F19F426F40C94280D0EF4E095E7FB91
:101C20000C94220DE92F0E944A0D58F3BA1762074F
:101C300073078407950720F079F4A6F50C946C0DD2
:101C40000EF4E0950B2EBA2FA02D0B01B9019001D7
:101C50000C01CA01A0011124FF27591B99F0593F1B
:101C600050F4503E68F11A16F040A22F232F342F63
:101C70004427585FF3CF469537952795A795F040B1
:101C80005395C9F77EF41F16BA0B620B730B840BC6
:101C9000BAF09150A1F0FF0FBB1F661F771F881F7E
:101CA000C2F70EC0BA0F621F731F841F48F48795D6
:101CB00077956795B795F7959E3F08F0B0CF9395C8
:101CC000880F08F09927EE0F9795879508950E9441
:101CD0007B0E0C94390D0E94320D58F00E942B0D92
:101CE00040F029F45F3F29F00C94220D51110C941F
:101CF0006D0D0C94280D0E944A0D68F39923B1F3E1
:101D0000552391F3951B550BBB27AA276217730721
:101D1000840738F09F5F5F4F220F331F441FAA1FB5
:101D2000A9F335D00E2E3AF0E0E832D09150504071
:101D3000E695001CCAF72BD0FE2F29D0660F771F1F
:101D4000881FBB1F261737074807AB07B0E809F005
:101D5000BB0B802DBF01FF2793585F4F3AF09E3F8A
:101D6000510578F00C94220D0C946D0D5F3FE4F357
:101D7000983ED4F3869577956795B795F7959F5FCD
:101D8000C9F7880F911D9695879597F90895E1E019
:101D9000660F771F881FBB1F621773078407BA0778
:101DA00020F0621B730B840BBA0BEE1F88F7E095D3
:101DB00008950E94E00E6894B1110C946D0D089581
:101DC0000E94520D88F09F5798F0B92F9927B7516C
:101DD000B0F0E1F0660F771F881F991F1AF0BA95CF
:101DE000C9F714C0B13091F00E946C0DB1E00895B4
:101DF0000C946C0D672F782F8827B85F39F0B93FA6
:101E0000CCF3869577956795B395D9F73EF4909581
:101E10008095709561957F4F8F4F9F4F08950E94D9
:101E2000910C08F48FEF08950E94240F29ED3BE5F3
:101E30004EED5EE30C94B50C16F00C94710F0C94FF
:101E4000280D68940C94220D0E94520DA8F399233A
:101E5000C1F3AEF3DF93CF931F930F93FF92C92F7C
:101E6000DD2788232AF02197660F771F881FDAF76E
:101E700020E030E040E85FEB9FE3883920F0803ECF
:101E800038F021968F770E94FB0DE8E6F0E004C061
:101E90000E94FB0DE5E9F0E00E947F0F8B01BE017F
:101EA000EC01FB2E6F5771097595771F880B990B05
:101EB0000E94560C28E132E741E35FE30E94C80C20
:101EC000AF2D9801AE01FF900F911F91CF91DF913F
:101ED0000E94120E0C94390D0E94910C880B990BE4
:101EE00008959F3F31F0915020F48795779567953D
:101EF000B795880F911D9695879597F90895DF936B
:101F0000CF931F930F93FF92EF92DF927B018C018F
:101F1000689406C0DA2EEF010E94C80CFE01E89416
:101F2000A5912591359145915591A6F3EF010E9418
:101F3000120EFE019701A801DA9469F7DF90EF9085
:101F4000FF900F911F91CF91DF9108950E94EB0DAB
:101F5000B7FF0895821B930B0895EE0FFF1F0590A6
:101F6000F491E02D09940F931F93CF93DF93823068
:101F7000910510F482E090E0E0910903F0910A03EA
:101F800030E020E0B0E0A0E0309799F42115310571
:101F900009F44AC0281B390B24303105D8F58A8151
:101FA0009B816115710589F1FB0193838283FE0199
:101FB00011C0408151810281138148175907E0F017
:101FC0004817590799F4109761F012960C931297DD
:101FD00013961C933296CF01DF91CF911F910F91F1
:101FE00008950093090310930A03F4CF21153105D6
:101FF00051F04217530738F0A901DB019A01BD01E6
:10200000DF01F801C1CFEF01F9CF90930A0380936C
:102010000903CDCFFE01E20FF31F8193919322506C
:10202000310939832883D7CF2091070330910803E2
:10203000232B41F420914301309144013093080354
:102040002093070320914101309142012115310570
:1020500041F42DB73EB74091450150914601241BF4
:10206000350BE0910703F0910803E217F307A0F4A2
:102070002E1B3F0B2817390778F0AC014E5F5F4FDE
:102080002417350748F04E0F5F1F50930803409305
:102090000703819391939FCFF0E0E0E09CCFCF9333
:1020A000DF930097E9F0FC01329713821282A0912E
:1020B0000903B0910A03ED0130E020E01097A1F48C
:1020C00020813181820F931F2091070330910803F3
:1020D0002817390709F061C0F0930803E09307035C
:1020E000DF91CF910895EA01CE17DF07E8F54A8125
:1020F0005B819E0141155105B1F7E901FB83EA833C
:1021000049915991C40FD51FEC17FD0761F48081E7
:1021100091810296840F951FE901998388838281BA
:1021200093819B838A83F0E0E0E012968D919C91ED
:1021300013970097B9F52D913C911197CD01029617
:10214000820F931F20910703309108032817390746
:1021500039F6309751F510920A0310920903B093A3
:102160000803A0930703BCCFD383C283408151816E
:10217000840F951FC817D90761F44E5F5F4F8881A0
:102180009981480F591F518340838A819B81938392
:1021900082832115310509F0B0CFF0930A03E09353
:1021A00009039ECFFD01DC01C0CF13821282D7CF7D
:1021B000B0E0A0E0EEEDF0E10C94940D8C010097FE
:1021C00051F4CB010E94B30F8C01C801CDB7DEB72B
:1021D000E0E10C94B00DFC01E60FF71F9C012250CA
:1021E0003109E217F30708F49DC0D901CD91DC91C4
:1021F0001197C617D70798F0C530D10530F3CE0137
:1022000004978617970708F3C61BD70B2297C1932D
:10221000D1936D937C93CF010E944F10D6CF5B0179
:10222000AC1ABD0A4C018C0E9D1EA0910903B09101
:102230000A03512C412CF12CE12C109731F580919F
:102240000703909108038815990509F05CC04616AC
:10225000570608F058C080914101909142010097C3
:1022600041F48DB79EB74091450150914601841BC2
:10227000950BE817F90708F055C0F0930803E093B1
:102280000703F90171836083A0CF8D919C91119711
:1022900012966C90129713967C901397A815B90517
:1022A00059F56C0142E0C40ED11CCA14DB0420F1C4
:1022B000AC014A195B09DA011296159780F0628227
:1022C000738251834083D9016D937C93E114F104AF
:1022D00071F0D7011396FC93EE93129776CF229666
:1022E0008C0F9D1FF90191838083F301EFCFF09351
:1022F0000A03E093090369CF4816590608F42C0134
:102300007D01D3019ACFCB010E94B30F7C010097CE
:1023100049F0AE01B8010E949511C8010E944F100A
:10232000870153CF10E000E050CFFB01DC0102C079
:1023300001900D9241505040D8F70895FB01DC0107
:1023400001900D920020E1F7089510E0CFE8D0E071
:1023500004C0FE010E94AD0F2196C039D107C9F714
:04236000F894FFCF1F
:10236400011F191000000000001F1F1F1F1602028A
:10237400031F1F0F0703030203101818180010008F
:10238400001F171F1F1C1F1C1C0001010101030F4C
:102394001F000000001010181C06090906000000A8
:1023A4000000000B038000000000009901F90026E2
:1023B40001E601570135014901000000006605F9F5
:1023C4000010040F046E616E00696E66006F76661D
:1023D40000416E616C697A61646F720064650049E2
:1023E4006E63756261646F72610047414C4C494D84
:1023F400494D5553002054313A20002043002054C5
:10240400323A200020523A20002064420020463A0A
:102414002000206D2F730020483A2000202500540E
:10242400656D706572617475726120436F6C636869
:102434006F6E3A0054656D706572617475726120D7
:10244400416D6269656E74653A00496E74656E73B8
:10245400696461643A2000466C756A6F3A200048EA
:0A246400756D656461643A200000A4
:00000001FF
